:100000000C94074E0C94284E0C9477A40C94284E14
:100010000C94284E0C94284E0C94284E0C94284E88
:100020000C94284E0C94284E0C94284E0C949DA0B1
:100030000C94284E0C94284E0C94F5980C94284E51
:100040000C94284E0C94284E0C94284E0C94284E58
:100050000C94284E0C94284E0C94284E0C94284E48
:100060000C94284E0C9491A40C941CA40C94284E2F
:100070000C946FA60C940EA60C9447A60C94284ED4
:100080000C9475A10C94284E0C94284E0C94284E78
:100090000C94284E0C94284E0C94284E0C94284E08
:1000A0000C94284E0C94284E0C94284E0C94CAC5DF
:1000B0000C946EC60C94284E0C94284E0C94CF9A37
:1000C0000C94284E0C94284E0C94284E0C94284ED8
:1000D0000C94284E0C94284E0C94284E0C94284EC8
:1000E0000C94BAA90C94284E0C94284E0C94284ECB
:1000F0000C94284E0C94284E0C94284E0C94284EA8
:100100000C94A1C50C9445C60C9478C50C941CC6DF
:100110000C94284E0C94284E0C94284E0C94284E87
:100120000C94284E0C94284E0C94284E0C94284E77
:100130000C94284E0C944A9A0C94284E0C94284EF9
:100140000C94284E0C94284E0C94284E0C94284E57
:100150000C94284E0C94284E0C94B0A90C94284E64
:100160000C94284E0C94284E0C94284E0C94284E37
:100170000C94284E0C94284E0C94284E0C94284E27
:100180000C94284E0C94284E0C94284E0C94284E17
:100190000C94284E0C94284E0C94284E0C94284E07
:1001A0000C94F3C50C9497C60C94284E0C94284ECE
:1001B0000C948B9A0C94284E0C94284E0C94284E38
:1001C0000C94284E0C94284E0C94284E0C94284ED7
:1001D0000C94284E0C94284E0C94284E0C94284EC7
:1001E0000C94284E0C94284E9A7BA57BB07BDC7D2A
:1001F000DC7D587BD779DC7DBB7BC67BD17BDC7B10
:10020000ED7AF07BDC7D637BDC7DE57B6E7B4D7B7B
:10021000DC7DDC7DDC7D797B847B8F7BE879EB7911
:10022000F279F579F879DC7DDC7DDC7DDC7DDC7DC7
:10023000FA79DC7DDC7DDC7DDC7DDC7DDC7DFC79C0
:10024000FF79067A097A0C7ADC7DDC7DDC7DDC7D49
:10025000DC7DDC7D137ADC7D397ADC7DDC7DDC7D48
:10026000DC7DDC7DDC7DDC7D4E7ADC7DA979DC7D8E
:10027000DC7D587ADC7DDC7DDC7DDC7DDC7D627ABA
:10028000DC7DDC7DDC7D657A6A7A6D7A747A777ADA
:100290007A7A7D7ADC7D807ADC7DDC7D937ADC7D08
:1002A000DC7DDC7DDC7DDC7DDC7DDC7DDC7DDC7D86
:1002B000DC7DDC7DDC7DDC7DDC7DDC7D9A7ADC7DBB
:1002C000DC7DDC7DDC7DDC7DDC7DDC7DDC7DDC7D66
:1002D0009D7AAC7AC47AE37AE67A7B7D437D467D6B
:1002E0004D7D2E7D317D397D3C7D577D6B7D727DD1
:1002F000757D787DC37D507D4284458454846084BF
:100300007984A084AA841485CB84E8845BA0F39FBD
:10031000F89FFD9F02A007A00CA011A016A01BA093
:1003200020A025A02AA02FA034A049A049A049A020
:1003300049A049A049A049A049A049A049A049A075
:1003400049A049A049A049A049A049A049A049A065
:1003500049A049A049A049A049A049A049A049A055
:1003600049A049A049A049A049A049A049A049A045
:1003700039A03EA015C41AC41FC426C42BC430C45F
:1003800035C43AC4084AD73B3BCE016E84BCBFFD9E
:10039000C12F3D6C74319ABD56833DDA3D00C77F55
:1003A00011BED9E4BB4C3E916BAAAABE00000080EE
:1003B0003F05A84CCDB2D44EB93836A9020C50B97D
:1003C000918688083CA6AAAA2ABE000000803F07A2
:1003D000634236B79BD8A71A39685618AEBAAB55E0
:1003E0008C1D3CB7CC5763BD6DEDFD753EF61772A5
:1003F00031BF000000803F08000000BE9224491277
:100400003EABAAAA2ABECDCCCC4C3E00000080BE9A
:10041000ABAAAAAA3E00000000BF000000803F0077
:1004200000000000084178D3BB4387D1133D190E6B
:100430003CC3BD4282AD2B3E68EC8276BED98FE1D3
:10044000A93E4C80EFFFBE01C4FF7F3F00000000CB
:1004500000000C9479650C9476670C9401AB0C94B5
:10046000DC7B0C9425C00C94296D0C94BE690C9413
:10047000197F0C94A66D0C94DD6B0C94939D0C94D9
:100480006B7D0C94D7790C94067A0C94EB7E0C94CB
:10049000F5790C9454C70C94C2690C94BC900C94DC
:1004A0001D680C94577D0C94FD9F0C94A8680C94C7
:1004B000E0A60C943F650C946F650C9416670C9441
:1004C0004D7B0C94627A0C94D6690C94587A0C94F7
:1004D000C6690C94317D0C949DC30C94DC6C0C9417
:1004E000D2BF0C9498680C94868F0C94507D0C9419
:1004F000FA790C940BA80C94748E0C94A6690C9445
:10050000937A0C94DBCA0C94DB9F0C9430A90C9466
:1005100094680C944C680C9404C40C94587B0C9410
:10052000D2870C9405690C9466BF0C940FC70C9489
:1005300074680C94CA690C94BF9D0C94F77D0C945C
:10054000F5690C949A7A0C947A7A0C9492D40C945F
:100550009C680C9439650C9490650C941FC40C94A1
:10056000787D0C94A0840C9480680C9430C40C9416
:10057000289D0C947A900C945BA50C94F2790C94C1
:10058000E67A0C94EF540C94FDAA0C941BA00C94E6
:1005900015AB0C9460840C94FF790C9402BF0C94FE
:1005A000467D0C9465640C94788E0C94DD650C94F7
:1005B000B9600C9412BE0C94ED7A0C94AA9F0C9422
:1005C000397A0C944B650C94B07B0C94807A0C9423
:1005D00045650C94E6560C943C7F0C94CEBF0C946D
:1005E0003AA50C9482BF0C9475660C94747A0C94A2
:1005F00026C40C94F89F0C94B6690C94DC7D0C9482
:100600006FC30C94D1860C943EA00C9402A00C9461
:10061000C9CC0C94847B0C945C650C94F5AA0C9466
:1006200095BE0C947FC00C9409670C9401690C94DE
:10063000389E0C941C550C94CE690C94668F0C94C7
:10064000C37D0C94A57B0C947B7D0C94DA690C948F
:1006500084680C940F680C940DAB0C94C56F0C94CB
:10066000CB840C94A9790C9425A00C949C650C94D3
:10067000E8840C940C7A0C94A5900C94C4900C947F
:10068000C0700C943C7D0C942AC00C94D3660C94DE
:10069000AA840C94E6690C942FC00C946D7A0C9487
:1006A0002E7D0C9449A00C94349E0C9479840C9467
:1006B000238E0C94C2670C94AA690C94CD860C947A
:1006C00009690C9436BD0C94FDC60C94637B0C94A4
:1006D000727D0C94E5750C94DF9F0C94BB750C94A3
:1006E000E39F0C940D690C94289E0C9411AB0C9410
:1006F00039A00C94797B0C948E900C9435690C94F1
:1007000066BC0C94109D0C94FF750C942A760C9486
:10071000BA690C94F1650C94509E0C949FA50C94AE
:10072000AE690C9441C30C94F2670C94E57B0C9475
:1007300076750C94D9C20C9405AB0C9453A70C9409
:100740008E860C9490680C9463C00C948F7B0C94F0
:100750003AC40C941F930C948E8F0C94D17B0C9400
:100760008C680C94A4660C94296C0C9461690C94AC
:1007700085650C94756C0C94B4650C941F8E0C9468
:100780004D7D0C94D1CC0C9488680C9413C70C94B8
:10079000B2690C942BC40C943E580C9416680C94BB
:1007A000E5740C9407A00C94D06B0C94EB790C942A
:1007B0001DBF0C94137A0C9433650C946B6D0C94E0
:1007C0009D6C0C9434A00C945ECE0C94EE670C944B
:1007D000757D0C94E37A0C94CABF0C943F760C940C
:1007E0001AC40C945D690C942BC70C94AF9F0C94A5
:1007F000AC7A0C94E8790C94376D0C949A7B0C9439
:10080000C7C70C9445840C9416A00C9496CA0C94FB
:1008100046930C9415C40C941C9D0C94D5860C9492
:100820005F7F0C948A8F0C94B0680C9454840C9461
:1008300024680C94E38B0C941B6D0C94C4540C949E
:100840004C9E0C9409AB0C94F39F0C9408680C9488
:10085000F9AA0C94C0900C94FD680C94C8900C9468
:100860003D9E0C940CA00C9434C00C94097A0C940A
:10087000A4680C94A0680C94F89D0C946A7A0C946B
:10088000F07B0C94DA6C0C94F8790C94A86D0C94B1
:1008900014850C94AA630C944E7A0C94678A0C9479
:1008A000C1A30C9421620C94D2690C94FC790C9431
:1008B000456D0C947E5B0C944C9F0C94B2BD0C94D3
:1008C0002AA00C9436660C94D39F0C94FA690C946D
:1008D000F1AA0C94F9680C94F7C60C94D6BF0C944A
:1008E0002FA00C944F6C0C9435C40C949D7A0C94EE
:1008F0007D7A0C94777A0C94DE690C94A7650C943D
:10090000E2690C94C67B0C94C47A0C94D79F0C9427
:100910002D650C94026D0C946E7B0C947C680C9489
:10092000D86C0C94AE760C94549E0C94C0A50C9488
:100930006DC70C94C6BF0C94437D0C9411A00C940D
:10094000036C0C94BB7B0C94657A0C9420A00C94E3
:1009500078680C94AC680C9442840C94EE6C0C9403
:10096000DE540C9420650C94397D0C94CF9F0C942C
:100970005BA00C94109E6E616E00696E66004E4125
:100980004E494E495459494E46CDCCCC3D0AD72309
:100990003C17B7D13877CC2B329595E6241FB14F51
:1009A0000A000020410000C84200401C4620BCBE96
:1009B0004CCA1B0E5AAEC59D7400407A10F35A0003
:1009C000A0724E18090010A5D4E80000E876481778
:1009D0000000E40B54020000CA9A3B000000E1F55D
:1009E00005000080969800000040420F000000A023
:1009F0008601000000102700000000E8030000004E
:100A0000006400000000000A000000000001000077
:100A10000000002C76D888DC674F0823DFC1DFAEEA
:100A200059E1B1B796E5E3E453C63AE651997696B3
:100A3000E8E6C28426EB898C9B62ED407C6FFCEF7C
:100A4000BC9C9F40F2BAA56FA5F490055A2AF75CAA
:100A5000936B6CF9676DC11BFCE0E40D47FEF5205C
:100A6000E6B500D0ED902E03009435770500808424
:100A70001E080000204E0A000000C80C3333333338
:100A80000F986E12831141EF8D2114893BE65516A4
:100A9000CFFEE6DB18D1844B381BF77C1D901DA4DC
:100AA000BBE424203284725E228100C9F124ECA1CF
:100AB000E53D2725660025302E37660025302E3689
:100AC000660025302E35660025302E346600253030
:100AD0002E33660025302E32660025302E3166001A
:100AE00025302E306600256C00256C75007D107B4E
:100AF00010791077107510731071106F106D106BE6
:100B0000106810651062105F105C10591056105379
:100B10001050104D104A104710441041103E103B29
:100B2000103810351032102F102C102910261023D9
:100B30001020101D101A101710141011100E100B89
:100B400010081005100210FF0FFC0FF90FF60FF33D
:100B50000FF00FED0FEA0FE70FE40FE10FDE0FDBF1
:100B60000FD80FD50FD20FCF0FCC0FC90FC60FC3A1
:100B70000FC00FBD0FBA0FB70FB40FB10FAE0FAB51
:100B80000FA80FA50FA20F9F0F9C0F990F960F9301
:100B90000F900F8D0F8A0F870F840F810F7E0F7BB1
:100BA0000F780F750F720F6F0F6C0F690F660F6361
:100BB0000F600F5D0F590F550F510F4D0F490F4526
:100BC0000F410F3D0F390F350F310F2D0F290F2515
:100BD0000F210F1D0F190F150F110F0D0F090F0505
:100BE0000F010FFD0EF90EF50EF10EED0EE90EE5FB
:100BF0000EE10EDD0ED90ED50ED10ECD0EC90EC5ED
:100C00000EC10EBD0EB90EB50EB10EAD0EA90EA5DC
:100C10000EA10E9D0E990E950E910E8D0E890E85CC
:100C20000E810E7D0E790E750E710E6D0E690E65BC
:100C30000E610E5D0E590E550E510E4D0E490E45AC
:100C40000E410E3D0E390E350E310E2D0E290E259C
:100C50000E210E1D0E190E150E110E0D0E090E058C
:100C60000E010EFD0DF90DF50DF10DED0DE90DE582
:100C70000DE10DDD0DD90DD50DD10DCD0DC90DC574
:100C80000DC10DBD0DB90DB50DB10DAD0DA90DA564
:100C90000DA10D9D0D990D950D910D8D0D890D8554
:100CA0000D810D7D0D790D750D710D6D0D690D6544
:100CB0000D610D5D0D590D550D510D4D0D490D4534
:100CC0000D410D3D0D390D350D310D2D0D290D2524
:100CD0000D210D1D0D190D150D110D0D0D090D0514
:100CE0000D010DFD0CF90CF50CF10CED0C32353548
:100CF000003235340032353300323532003235318E
:100D00000032353000323439003234380032343772
:100D10000032343600323435003234340032343369
:100D20000032343200323431003234300032333960
:100D30000032333800323337003233360032333545
:100D40000032333400323333003233320032333145
:100D5000003233300032323900323238003232372A
:100D60000032323600323235003232340032323321
:100D70000032323200323231003232300032313918
:100D800000323138003231370032313600323135FD
:100D900000323134003231330032313200323131FD
:100DA00000323130003230390032303800323037E2
:100DB00000323036003230350032303400323033D9
:100DC00000323032003230310032303000313939C7
:100DD0000031393800313937003139360031393591
:100DE0000031393400313933003139320031393191
:100DF0000031393000313839003138380031383776
:100E0000003138360031383500313834003138336C
:100E10000031383200313831003138300031373963
:100E20000031373800313737003137360031373548
:100E30000031373400313733003137320031373148
:100E4000003137300031363900313638003136372D
:100E50000031363600313635003136340031363324
:100E6000003136320031363100313630003135391B
:100E70000031353800313537003135360031353500
:100E80000031353400313533003135320031353100
:100E900000313530003134390031343800313437E5
:100EA00000313436003134350031343400313433DC
:100EB00000313432003134310031343000313339D3
:100EC00000313338003133370031333600313335B8
:100ED00000313334003133330031333200313331B8
:100EE000003133300031323900313238003132379D
:100EF0000031323600313235003132340031323394
:100F0000003132320031323100313230003131398A
:100F1000003131380031313700313136003131356F
:100F2000003131340031313300313132003131316F
:100F30000031313000313039003130380031303754
:100F4000003130360031303500313034003130334B
:100F50000031303200313031003130300039390069
:100F6000393800393700393600393500393400391D
:100F7000330039320039310039300038390038381F
:100F80000038370038360038350038340038330040
:100F90003832003831003830003739003738003700
:100FA00037003736003735003734003733003732F3
:100FB0000037310037300036390036380036370018
:100FC00036360036350036340036330036320036D9
:100FD00031003630003539003538003537003536C8
:100FE00000353500353400353300353200353100F9
:100FF00035300034390034380034370034360034AA
:1010000035003434003433003432003431003430AD
:1010100000333900333800333700333600333500BE
:101020003334003333003332003331003330003295
:10103000390032380032370032360032350032346F
:1010400000323300323200323100323000313900A8
:10105000313800313700313600313500313400315C
:10106000330031320031310031300039003800377F
:1010700000360035003400330032003100300041CA
:101080006374697665206D6F64656C3A0A007365F8
:101090006E7420627920686F73740073656E7420BB
:1010A000627920686F73740073656E7420627920B2
:1010B000686F73740063616E6F6E6963616C5F6DFE
:1010C000616368696E655F746573745F617373658E
:1010D0007274696F6E73282900636D5F6765745F52
:1010E000636F6D62696E65645F73746174652829EE
:1010F000206D6163732062616400636D5F67657476
:101100005F636F6D62696E65645F73746174652897
:101110002920637963732062616400636D5F676592
:10112000745F636F6D62696E65645F73746174652B
:101130002829206D6F747320626164005B2573251C
:10114000735D20257320257320706F736974696F38
:101150006E2531382E336625730A005B257325739F
:101160005D202573202573206F66667365742532B4
:10117000302E336625730A005B257325735D2025A9
:1011800073207A65726F206261636B6F66662531CA
:10119000392E336625730A005B257325735D202580
:1011A00073206C61746368206261636B6F6666258F
:1011B00031382E336625730A005B257325735D2055
:1011C0002573206C617463682076656C6F63697445
:1011D000792531332E306625732F6D696E0A005BD9
:1011E000257325735D202573207365617263682004
:1011F00076656C6F636974792531322E306625739C
:101200002F6D696E0A005B257325735D20257320A1
:10121000737769746368206D617825313764205B6A
:10122000303D6F66662C313D686F6D696E672C329C
:101230003D6C696D69742C333D6C696D69742B6804
:101240006F6D696E672C343D70726F62655D0A0068
:101250005B257325735D202573207377697463683C
:10126000206D696E25313764205B303D6F66662CDA
:10127000313D686F6D696E672C323D6C696D6974C4
:101280002C333D6C696D69742B686F6D696E672CCA
:10129000343D70726F62655D0A005B257325735D76
:1012A000202573207261646975732076616C7565A1
:1012B0002532302E346625730A005B257325735D55
:1012C000202573206A756E6374696F6E206465767D
:1012D000696174696F6E2531342E34662573202858
:1012E0006C617267657220697320666173746572E0
:1012F000290A005B257325735D202573206A6572BA
:101300006B20686F6D696E672531362E30662573E8
:101310002F6D696E5E33202A2031206D696C6C69F7
:101320006F6E0A005B257325735D202573206A6547
:10133000726B206D6178696D756D2531352E306663
:1013400025732F6D696E5E33202A2031206D696C04
:101350006C696F6E0A005B257325735D2025732011
:1013600074726176656C206D696E696D756D25317D
:10137000372E336625730A005B257325735D2025A0
:10138000732074726176656C206D6178696D756D1E
:101390002531372E336625730A005B257325735D6F
:1013A0002025732076656C6F63697479206D617890
:1013B000696D756D2531312E306625732F6D696E1F
:1013C0000A005B257325735D2025732066656564BF
:1013D00072617465206D6178696D756D2531312E8E
:1013E000306625732F6D696E0A005B257325735D6A
:1013F0002025732061786973206D6F64652531380D
:10140000642025730A005B736C5D2020736F667423
:10141000206C696D697420656E61626C652531327E
:10142000640A005B63745D202063686F7264616CA2
:1014300020746F6C6572616E63652531372E34667A
:1014400025730A005B6A615D20206A756E637469AA
:101450006F6E20616363656C65726174696F6E2580
:10146000382E306625730A005B6764695D20646509
:101470006661756C742067636F646520646973745A
:10148000616E6365206D6F6465253264205B303D5D
:101490004739302C313D4739315D0A005B67706157
:1014A0005D2064656661756C742067636F64652098
:1014B0007061746820636F6E74726F6C2533642082
:1014C0005B303D4736312C313D4736312E312C32A1
:1014D0003D4736345D0A005B67636F5D2064656677
:1014E00061756C742067636F646520636F6F7264ED
:1014F0002073797374656D253364205B312D36203C
:10150000284735342D473539295D0A005B67756EEC
:101510005D2064656661756C742067636F64652027
:10152000756E697473206D6F6465253564205B305A
:101530003D4732302C313D4732315D0A005B6770E8
:101540006C5D2064656661756C742067636F6465AB
:1015500020706C616E6525313064205B303D473111
:10156000372C313D4731382C323D4731395D0A0047
:101570002563206178697320686F6D696E672073D9
:10158000746174653A25322E30660A00256320772F
:101590006F726B206F66667365743A2531322E3335
:1015A0006625730A002563206D616368696E652096
:1015B000706F736E3A2531312E336625730A00251C
:1015C0006320706F736974696F6E3A2531352E33FD
:1015D0006625730A00546F6F6C206E756D626572BC
:1015E0002020202020202020202025640A0046657D
:1015F00065642072617465206D6F64653A202020F7
:1016000020202025730A00417263204469737461AD
:101610006E6365206D6F64653A20202025730A0093
:1016200044697374616E6365206D6F64653A202050
:10163000202020202025730A0050617468204D6FFF
:1016400064653A202020202020202020202025739F
:101650000A00506C616E653A202020202020202056
:101660002020202020202025730A004D6F74696FF0
:101670006E206D6F64653A202020202020202020DD
:1016800025730A00436F6F7264696E61746520731D
:10169000797374656D3A20202025730A00556E69B0
:1016A00074733A2020202020202020202020202079
:1016B000202025730A00486F6D696E67207374617E
:1016C00074653A202020202020202025730A00461F
:1016D000656564686F6C642073746174653A20207A
:1016E0002020202025730A004D6F74696F6E2073CF
:1016F000746174653A202020202020202025730A60
:10170000004379636C652073746174653A2020200E
:1017100020202020202025730A00526177206D614F
:101720006368696E652073746174653A20202025B2
:10173000730A004D616368696E6520737461746536
:101740003A2020202020202025730A004C696E6555
:10175000206E756D6265723A2531306C750A0046EF
:1017600065656420726174653A2531362E336625CD
:10177000732F6D696E0A0056656C6F636974793AF0
:101780002531372E336625732F6D696E0A00E517F4
:10179000B4179417473935202D20756E6974732D51
:1017A0007065722D7265766F6C7574696F6E206DE1
:1017B0006F646500473934202D20756E6974732D70
:1017C0007065722D6D696E757465206D6F6465202E
:1017D00028692E652E206665656472617465206DCA
:1017E0006F64652900473933202D20696E76657254
:1017F00073652074696D65206D6F64650032180132
:10180000184739312E31202D20696E6372656D6560
:101810006E74616C2064697374616E6365206D6FB2
:101820006465202864656661756C74206D6F6465FD
:1018300029004739302E31202D206162736F6C757D
:1018400074652064697374616E6365206D6F64658F
:101850000075185518473931202D20696E6372655F
:101860006D656E74616C2064697374616E6365206C
:101870006D6F646500473930202D206162736F6C95
:101880007574652064697374616E6365206D6F643F
:101890006500C618AE189818473634202D20636F9F
:1018A0006E74696E756F7573206D6F646500473671
:1018B000312E31202D2065786163742073746F7030
:1018C000206D6F646500473631202D206578616397
:1018D000742070617468206D6F6465000019F118E0
:1018E000E218473139202D20595A20706C616E65FD
:1018F00000473138202D20585A20706C616E6500E9
:10190000473137202D20585920706C616E65008C4E
:10191000197A19611940191919473830202D206397
:10192000616E63656C206D6F74696F6E206D6F649E
:101930006520286E6F6E6520616374697665290085
:10194000473320202D20636F756E74657220636CA1
:101950006F636B7769736520617263206665656488
:1019600000473220202D20636C6F636B77697365AD
:1019700020617263206665656400473120202D2058
:101980006C696E6561722066656564004730202071
:101990002D206C696E656172207472617665727358
:1019A00065004C1A321A181AFE19E419CA19B0192E
:1019B000473539202D20636F6F7264696E617465DD
:1019C0002073797374656D203600473538202D20DB
:1019D000636F6F7264696E61746520737973746587
:1019E0006D203500473537202D20636F6F72646995
:1019F0006E6174652073797374656D2034004735AA
:101A000036202D20636F6F7264696E617465207378
:101A1000797374656D203300473535202D20636F51
:101A20006F7264696E6174652073797374656D207B
:101A30003200473534202D20636F6F7264696E6108
:101A400074652073797374656D20310047353320D8
:101A50002D206D616368696E6520636F6F726469C4
:101A60006E6174652073797374656D007F1A791ADD
:101A7000721A486F6D696E6700486F6D6564004E3D
:101A80006F7420486F6D656400D01AC61AC11AB20F
:101A90001AA41A9C1A971A486F6C640050656E64F9
:101AA000696E6700446563656C2D546F2D5A6572CD
:101AB0006F00446563656C2D436F6E74696E756568
:101AC0000053796E630052657175657374656400C7
:101AD0004F666600E31ADF1ADA1A486F6C64005228
:101AE000756E0053746F70000D1B031BFC1AF61A01
:101AF000F21A4A6F670050726F626500486F6D6935
:101B00006E67004D616368696E696E67004F666657
:101B100000571B511B4B1B461B421B3C1B321B29F6
:101B20001B231B50414E49430053485554444F57C3
:101B30004E00496E7465726C6F636B004379636C21
:101B40006500456E640053746F7000416C61726D86
:101B500000526561647900496E697469616C697AE3
:101B6000696E6700CE1BC81BC21BBD1BB91BB51B12
:101B7000B01BAA1BA41B9D1B991B8F1B861B801BC4
:101B800050616E69630053687574646F776E0049C5
:101B90006E7465726C6F636B004A6F6700486F6D9F
:101BA000696E67004379636C650050726F6265000F
:101BB000486F6C640052756E00456E640053746F1C
:101BC0007000416C61726D00526561647900496E0C
:101BD000697469616C697A696E6700F51BDF1B4780
:101BE0003231202D206D696C6C696D6574657220D1
:101BF0006D6F646500473230202D20696E63686523
:101C000073206D6F6465002F1C241C181C0F1C5B57
:101C10007261646975735D005B696E68696269749D
:101C200065645D005B7374616E646172645D005B2A
:101C300064697361626C65645D00491C451C401CED
:101C40002064656700206D6D0020696E006572720A
:101C5000006D7367006E0071720065720073720030
:101C6000676300737200736574007372007372733C
:101C7000007365740073797300636F6E6669675FE4
:101C8000746573745F617373657274696F6E7328C2
:101C9000290043616E6E6F742072657365742074E1
:101CA0006F2064656661756C7473207768656E205B
:101CB0006D6F76696E6700006C696E652C706F736E
:101CC000782C706F73792C706F737A2C706F7361CE
:101CD0002C666565642C76656C2C756E69742C6356
:101CE0006F6F722C646973742C61646D6F2C6672F3
:101CF0006D6F2C6D6F6D6F2C73746174007B22613E
:101D0000636B223A747275657D0A0022007B227231
:101D1000223A7B22747874223A22007B723A7B74D6
:101D200078743A2200636F6E74726F6C6C65725FC8
:101D3000746573745F617373657274696F6E732811
:101D40002900696E70757420256400486F6D696E96
:101D500067206572726F72202D202563206178697B
:101D6000732073657474696E6773206D6973636F34
:101D70006E6669677572656400486F6D696E67208D
:101D80006572726F72202D20426164206F72206E26
:101D90006F206178697328657329207370656369A2
:101DA0006669656400456E7465722024626F6F74A5
:101DB0003D3120746F20656E7465722074686520F3
:101DC000626F6F74206C6F616465722E0A000A0A7C
:101DD0000A2323232054696E794720424F4F542011
:101DE0004C4F414445522048656C70202323230A00
:101DF0000053656E64207B626F6F743A7472756510
:101E00007D20746F20656E74657220626F6F742020
:101E10006C6F6164657200456E7465722024646540
:101E200066613D3120746F2072657365742074683B
:101E3000652073797374656D20746F2074686520F4
:101E4000666163746F72792064656661756C742075
:101E500076616C7565732E0A546869732077696CB6
:101E60006C206F766572777269746520616E792077
:101E70006368616E67657320796F75206861766548
:101E8000206D6164652E0A000A0A0A232323205468
:101E9000696E794720524553544F52452044454678
:101EA00041554C54532048656C70202323230A006D
:101EB00053656E64207B646566613A747275657DF6
:101EC00020746F20726573657420746F206465667A
:101ED00061756C742073657474696E677300496E04
:101EE000766F6B652073656C662074657374206211
:101EF0007920656E746572696E67202474657374E9
:101F00003D4E207768657265204E206973206F6EA4
:101F100065206F663A0A202024746573743D312071
:101F200020736D6F6B6520746573740A20202474B0
:101F30006573743D322020686F6D696E672074652B
:101F4000737420202028796F75206D757374207448
:101F500072697020686F6D696E672073776974634A
:101F6000686573290A202024746573743D3320202A
:101F70007371756172652074657374202020286107
:101F800020736572696573206F6620737175617265
:101F90006573290A202024746573743D3420206100
:101FA0007263207465737420202020202028736FB2
:101FB0006D65206C6172676520636972636C65731F
:101FC000290A202024746573743D352020647765C8
:101FD0006C6C207465737420202020286D6F7665EA
:101FE00073207370616365642062792031207365AA
:101FF000636F6E64206477656C6C73290A202024FB
:10200000746573743D36202066656564686F6C6422
:1020100020746573742028656E74657220212061B8
:102020006E64207E20746F20686F6C6420616E6423
:1020300020726573746172742C20726573706563AD
:10204000746976656C79290A202024746573743D5F
:102050003720204D20636F6465732074657374208E
:1020600020284D20636F64657320696E7465726DFE
:10207000696E676C65642077697468206D6F76653A
:1020800073290A202024746573743D3820204A5334
:102090004F4E20746573742020202020286D6F74AB
:1020A000696F6E20746573742072756E2075736924
:1020B0006E67204A534F4E20636F6D6D616E64737F
:1020C000290A202024746573743D392020696E76B6
:1020D000657273652074696D6520746573740A2078
:1020E0002024746573743D313020726F746172798D
:1020F000206D6F74696F6E20746573740A202024DC
:10210000746573743D313120736D616C6C206D6F3B
:1021100076657320746573740A2020247465737463
:102120003D313220736C6F77206D6F76657320744C
:102130006573740A202024746573743D3133206301
:102140006F6F7264696E6174652073797374656D05
:10215000206F666673657420746573742028473930
:10216000322C204735342D473539290A0A546573F6
:10217000747320617373756D6520612063656E747F
:1021800065726564205859206F726967696E2061B5
:102190006E64206174206C656173742038306D6DDD
:1021A00020636C656172616E636520696E20616C8D
:1021B0006C20646972656374696F6E730A54657329
:1021C000747320617373756D65205A206861732084
:1021D0006174206C656173742034306D6D20706F94
:1021E0007369697469766520636C656172616E6399
:1021F000650A54657374732073746172742077690F
:1022000074682061204730205830205930205A30DF
:10221000206D6F76650A486F6D696E67206973205F
:1022200074686520657863657074696F6E2E204EE2
:102230006F20696E697469616C20706F736974696D
:102240006F6E206F7220636C656172616E636520D2
:10225000697320617373756D65640A000A0A0A2345
:1022600023232054696E79472053454C462054451A
:1022700053542048656C70202323230A0045616372
:1022800068202420636F6D6D616E642061626F76DB
:102290006520616C736F20646973706C6179732061
:1022A00074686520746F6B656E20666F722065615F
:1022B00063682073657474696E6720696E205B20A3
:1022C0005D20627261636B6574730A546F20766976
:1022D00065772073657474696E677320656E7465C5
:1022E00072206120746F6B656E3A0A0A2020243CCC
:1022F000746F6B656E3E0A0A466F72206578616D79
:10230000706C65202479667220746F206469737024
:102310006C6179207468652059206D61782066654C
:10232000656420726174650A0A546F207570646177
:1023300074652073657474696E677320656E746567
:102340007220746F6B656E20657175616C73207699
:10235000616C75653A0A0A2020243C746F6B656EC7
:102360003E3D3C76616C75653E0A0A466F7220659B
:1023700078616D706C6520247966723D383030204C
:10238000746F20736574207468652059206D6178BE
:102390002066656564207261746520746F20383032
:1023A00030206D6D2F6D696E7574650A466F7220F1
:1023B000636F6E66696775726174696F6E206465BC
:1023C0007461696C73207365653A20687474707306
:1023D0003A2F2F6769746875622E636F6D2F73795A
:1023E0006E746865746F732F54696E79472F7769BF
:1023F0006B692F54696E79472D436F6E66696775F7
:10240000726174696F6E0A00546865736520636F4A
:102410006D6D616E647320617265206163746976AD
:102420006520666F7220636F6E666967757261748E
:10243000696F6E3A0A2020247379732053686F778E
:102440002073797374656D202867656E6572616CA1
:10245000292073657474696E67730A202024312003
:10246000202053686F77206D6F746F722031207356
:10247000657474696E677320286F72207768617461
:1024800065766572206D6F746F7220796F75207735
:10249000616E7420312C322C332C34290A202024F4
:1024A0007820202053686F77205820617869732046
:1024B00073657474696E677320286F722077686122
:1024C0007465766572206178697320796F752077FD
:1024D000616E7420782C792C7A2C612C622C632903
:1024E0000A2020246D20202053686F7720616C6CB7
:1024F000206D6F746F722073657474696E67730AF0
:102500002020247120202053686F7720616C6C207C
:10251000617869732073657474696E67730A20202B
:10252000246F20202053686F7720616C6C206F66C9
:10253000667365742073657474696E67730A20200E
:10254000242420202053686F7720616C6C207365F1
:102550007474696E67730A202024682020205368F1
:102560006F7720746869732068656C70207363727C
:1025700065656E0A0A000A0A0A2323232054696E3D
:10258000794720434F4E46494755524154494F4E93
:102590002048656C70202323230A000A466F7220AE
:1025A00064657461696C65642054696E794720695B
:1025B0006E666F207365653A2068747470733A2F85
:1025C0002F6769746875622E636F6D2F73796E74EF
:1025D0006865746F732F54696E79472F77696B69DB
:1025E0002F0A466F7220746865206C61746573747D
:1025F000206669726D77617265207365653A20683F
:10260000747470733A2F2F6769746875622E636FE4
:102610006D2F73796E746865746F732F54696E795A
:10262000470A506C65617365206C6F6720616E7935
:102630002069737375657320617420687474703ACF
:102640002F2F7777772E73796E746865746F732E7A
:10265000636F6D2F666F72756D730A4861766520C2
:1026600066756E0A000A4E6F74653A2054696E7979
:10267000472067656E657261746573206175746F5C
:102680006D61746963207374617475732072657011
:102690006F7274732062792064656661756C740A68
:1026A000546869732063616E206265206469736198
:1026B000626C656420627920656E746572696E670C
:1026C000202473763D300A53656520746865207751
:1026D000696B692062656C6F7720666F72206D6F21
:1026E00072652064657461696C732E0A00536565B8
:1026F0002068656C70207061676520617420687463
:102700007470733A2F2F6769746875622E636F6DEA
:102710002F73796E746865746F732F54696E79477F
:102720002F77696B692F48656C7000546865736515
:1027300020636F6D6D616E647320617265206163EB
:10274000746976652066726F6D2074686520636FAA
:102750006D6D616E64206C696E653A0A205E78204A
:10276000202020202020202020202020526573655A
:10277000742028636F6E74726F6C207829202D206E
:10278000736F6674776172652072657365740A2071
:10279000203F202020202020202020202020204DED
:1027A000616368696E6520706F736974696F6E200C
:1027B000616E642067636F6465206D6F64656C2073
:1027C00073746174650A202024202020202020209A
:1027D00020202020202053686F7720616E642073B2
:1027E000657420636F6E66696775726174696F6E78
:1027F0002073657474696E67730A2020212020207D
:102800002020202020202020202046656564686F3D
:102810006C64202D2073746F70206D6F74696F6EFF
:1028200020776974686F7574206C6F73696E6720A8
:10283000706F736974696F6E0A20207E20202020DB
:102840002020202020202020204379636C65205305
:1028500074617274202D20726573746172742066C5
:10286000726F6D2066656564686F6C640A2020680D
:102870002020202020202020202020202053686F8E
:102880007720746869732068656C70207363726563
:10289000656E0A202024682020202020202020206F
:1028A00020202053686F7720636F6E6669677572AA
:1028B0006174696F6E2068656C7020736372656502
:1028C0006E0A20202474657374202020202020208C
:1028D00020204C6973742073656C662D7465737465
:1028E000730A202024746573743D4E20202020201C
:1028F000202052756E2073656C662D74657374208C
:102900004E0A202024686F6D653D31202020202054
:10291000202052756E206120686F6D696E6720639C
:1029200079636C650A202024646566613D3120204E
:102930002020202020526573746F726520616C6CBA
:102940002073657474696E677320746F20226661EA
:1029500063746F7279222064656661756C74730AA2
:10296000000A0A0A2323232054696E794720486508
:102970006C70202323230A007B7D005B25735D00A0
:10298000223078256C7822006E756C6C0066616C64
:1029900073650074727565006E756C6C002225732A
:1029A000223A005B66735D2020666F6F746572204B
:1029B0007374796C6525313764205B303D6E6577C3
:1029C0002C313D6F6C645D0A005B6A735D20206A88
:1029D000736F6E2073657269616C697A65207374B8
:1029E000796C65253964205B303D72656C61786572
:1029F000642C313D7374726963745D0A005B6A769E
:102A00005D20206A736F6E20766572626F736974E1
:102A10007925313564205B303D73696C656E742CAB
:102A2000313D666F6F7465722C323D6D65737361F5
:102A30006765732C333D636F6E666967732C343D35
:102A40006C696E656E756D2C353D766572626F735F
:102A5000655D0A005B656A5D2020656E61626C657C
:102A6000206A736F6E206D6F646525313364205B5F
:102A7000303D746578742C313D4A534F4E5D0A00E9
:102A8000A53B9F3B983B813B6D3B5D3B503B443BB3
:102A9000383B2A3B133B043BF73AE13ACF3AC23A80
:102AA000AD3A993A8C3A893A7A3A653A503A413A8B
:102AB000313A1F3A083A053AE839CF39B939A839D5
:102AC0009639893977395D3940393D393A3937395D
:102AD000343931392E392B392839253922391F39E2
:102AE0001C3919391639133910390D390A39073992
:102AF00004390139FE38FB38F838F538F238EF3848
:102B0000EC38E938E638E338E038DD38DA38D738F9
:102B1000D438D138CE38CB38C838C538C238BF38A9
:102B2000BC38B938B638B338B038AD38AA38A73859
:102B3000893866384D3837381D380338E937C53796
:102B4000A83790377A3760373C371F370D37ED3667
:102B5000D636BD36A8368F36713655363D362B36CD
:102B60001336FE35DD35B9358C35883584358035FD
:102B70007C357835743570356C356835643560353D
:102B80005C3558353E3524351135F534E334CC34D5
:102B9000AE34A034833466344F3438342134F433C3
:102BA000CD33AD338B3365333E3322330333DE32E3
:102BB000B532B13291327932603246322632073242
:102BC000F831E931DD31CD31B731983189317A31A0
:102BD0006B315C314D313E312F31203111310231B9
:102BE000F330E430D530C630B730A830A430A03050
:102BF0009C309830943090308C30883084308030E5
:102C00007C307830743070306C30683064306030D4
:102C10005230403030300030D42FA52F7D2F742F0C
:102C2000702F6C2F682F642F602F5C2F582F542F1C
:102C3000502F4C2F482F442F392F262F132F002F82
:102C4000ED2EDA2EC72EB42EA12E8E2E7B2E682EC0
:102C5000552E3F2E3B2E372E332E2F2E2B2E272E4A
:102C6000132EED2DC82DA42D792D752D4A2D1B2D3C
:102C7000172D132D002DE62CCB2CA82C842C802C6A
:102C80003235350050726F626520737769746368FE
:102C900020636F6E66696775726564206F6E204190
:102CA00042432061786973004D756C7469706C657E
:102CB0002070726F62652073776974636865732032
:102CC000636F6E66696775726564004E6F2070721F
:102CD0006F62652073776974636820636F6E6669DD
:102CE00067757265640050726F62652074726176F8
:102CF000656C20697320746F6F20736D616C6C005C
:102D000050726F6265206379636C65206661696CDF
:102D10006564003234390032343800486F6D696EB2
:102D20006720457272202D204D75737420636C6589
:102D30006172207377697463686573206265666F7A
:102D4000726520686F6D696E6700486F6D696E67A8
:102D500020457272202D20486F6D696E6720696E64
:102D6000707574206973206D6973636F6E6669672F
:102D7000757265640032343500486F6D696E672086
:102D8000457272202D2054726176656C206D696EDB
:102D90002026206D6178206172652074686520733B
:102DA000616D6500486F6D696E6720457272202DF8
:102DB000204C617463682076656C6F636974792058
:102DC0006973207A65726F00486F6D696E67204580
:102DD0007272202D205365617263682076656C6F76
:102DE00063697479206973207A65726F00486F6D2A
:102DF000696E6720457272202D20426164206F72D7
:102E0000206E6F20617869732073706563696669ED
:102E1000656400486F6D696E67206379636C652037
:102E20006661696C656400323339003233380032D0
:102E30003337003233360032333500323334005307
:102E40006F6674206C696D697420647572696E6751
:102E50002061726300536F6674206C696D69742021
:102E60002D2043206D617800536F6674206C696D6E
:102E70006974202D2043206D696E00536F667420A5
:102E80006C696D6974202D2042206D617800536F4C
:102E90006674206C696D6974202D2042206D696E06
:102EA00000536F6674206C696D6974202D20412079
:102EB0006D617800536F6674206C696D6974202DA4
:102EC0002041206D696E00536F6674206C696D69D6
:102ED00074202D205A206D617800536F6674206C29
:102EE000696D6974202D205A206D696E00536F66DC
:102EF00074206C696D6974202D2059206D617800F3
:102F0000536F6674206C696D6974202D2059206D93
:102F1000696E00536F6674206C696D6974202D2092
:102F200058206D617800536F6674206C696D697408
:102F3000202D2058206D696E00536F6674206C69D7
:102F40006D69740032313900323138003231370066
:102F50003231360032313500323134003231330013
:102F6000323132003231310032313000323039000A
:102F7000323038004B696C6C206A6F6200436F6DB1
:102F80006D616E642072656A656374656420627940
:102F90002050414E4943205B5E7820746F2072655B
:102FA0007365745D00436F6D6D616E642072656A58
:102FB00065637465642062792053485554444F57C3
:102FC0004E205B24636C65617220746F20726573A0
:102FD00065745D00436F6D6D616E642072656A6536
:102FE0006374656420627920414C41524D205B241A
:102FF000636C65617220746F2072657365745D0027
:103000004C696D697420686974205B24636C656128
:103010007220746F2072657365742C20246C696D46
:103020003D3020746F206F766572726964655D0053
:103030004D6F7665203C206D696E2074696D65006A
:103040004D6F7665203C206D696E206C656E6774EF
:10305000680047656E65726963206572726F720001
:1030600031393900313938003139370031393600DA
:1030700031393500313934003139330031393200DA
:1030800031393100313930003138390031383800C8
:1030900031383700313836003138350031383400B6
:1030A00031383300313832005420776F7264206930
:1030B0006E76616C6964005420776F7264206D696C
:1030C0007373696E67005320776F726420696E7640
:1030D000616C6964005320776F7264206D6973734B
:1030E000696E67005220776F726420696E76616C3A
:1030F0006964005220776F7264206D697373696E22
:1031000067005120776F726420696E76616C696424
:10311000005120776F7264206D697373696E670068
:103120004C20776F726420696E76616C6964004C24
:1031300020776F7264206D697373696E6700482031
:10314000776F726420696E76616C696400482077DD
:103150006F7264206D697373696E67004520776FC5
:10316000726420696E76616C6964004520776F72C5
:1031700064206D697373696E67004420776F7264B1
:1031800020696E76616C6964004420776F726420F8
:103190006D697373696E67005020776F7264206E7B
:1031A0006F7420612076616C696420746F6F6C208D
:1031B0006E756D626572005020776F7264206E6F5D
:1031C0007420616E20696E746567657200502077A7
:1031D0006F7264206E656761746976650050207750
:1031E0006F7264207A65726F005020776F7264206E
:1031F000696E76616C6964005020776F7264206D2F
:10320000697373696E670041726320656E64706FE5
:10321000696E74206973207374617274696E6720BB
:10322000706F696E740041726320726164697573B6
:1032300020617263206F7574206F6620746F6C65F7
:1032400072616E63650041726320686173206D690D
:103250007373696E67206F666673657428732900DF
:1032600041726320686173206D697373696E6720B2
:1032700061786973286573290041726320737065F2
:1032800063696669636174696F6E206572726F72DB
:10329000004172632068617320696D706F73736998
:1032A000626C652063656E74657220706F696E7400
:1032B00000313533005370696E646C65206D757331
:1032C00074206265207475726E696E6720666F7215
:1032D000207468697320636F6D6D616E6400537054
:1032E000696E646C65206D757374206265206F660D
:1032F0006620666F72207468697320636F6D6D61FC
:103300006E64005370696E646C65207370656564EB
:10331000206578636565646564206D6178696D75A5
:103320006D005370696E646C652073706565642010
:1033300062656C6F77206D696E696D756D00507296
:103340006F6772616D6D656420706F696E74207354
:10335000616D652061732063757272656E74207093
:103360006F696E740043757474657220636F6D705D
:10337000656E736174696F6E2063616E6E6F742029
:10338000626520656E61626C656400526571756589
:10339000737465642076656C6F63697479206578F1
:1033A0006365656473206C696D69747300473020D0
:1033B0006F72204731206D757374206265206163E0
:1033C0007469766520666F722047353300526F74DA
:1033D0006172792061786573206E6F742076616CFC
:1033E000696420666F72207468697320636F6D6D05
:1033F000616E6400496E76657273652074696D65EF
:10340000206D6F6465206E6F742076616C69642036
:10341000666F72207468697320636F6D6D616E648E
:10342000004665656472617465206E6F7420737008
:10343000656369666965640053656C65637465649A
:1034400020706C616E6520696E76616C69640053F2
:10345000656C656374656420706C616E65206D6970
:103460007373696E67004178697320746172676570
:103470007420706F736974696F6E20696E76616C09
:1034800069640041786973207461726765742070A3
:103490006F736974696F6E206D697373696E67000D
:1034A000417869732064697361626C656400417876
:1034B000697320696E76616C696420666F7220742E
:1034C00068697320636F6D6D616E64004178697324
:1034D0002063616E6E6F7420626520707265736523
:1034E0006E74004178697320776F7264206D697320
:1034F00073696E670047636F6465206D6F64616C0C
:103500002067726F75702076696F6C6174696F6E79
:10351000004D20636F646520756E737570706F72F7
:103520007465640047636F646520636F6D6D616EE1
:103530006420756E737570706F7274656400476592
:103540006E657269632047636F646520696E70758C
:1035500074206572726F7200313239003132380076
:1035600031323700313236003132350031323400F9
:1035700031323300313232003132310031323000F9
:103580003131390031313800313137004A534F4E33
:103590002076616C756520646F6573206E6F742092
:1035A0006167726565207769746820766172696108
:1035B000626C652074797065004A534F4E206D61CE
:1035C00078696D756D206E657374696E67206465CA
:1035D000707468206578636565646564004A534F5C
:1035E0004E20747874206669656C64732063616E24
:1035F0006E6F74206265206E6573746564004A5353
:103600004F4E20737472696E6720746F6F206C6FF9
:103610006E67004A534F4E2068617320746F6F20AD
:103620006D616E79207061697273004A534F4E204C
:1036300073796E746178206572726F7200496E7072
:1036400075742076616C75652072616E67652065A2
:1036500072726F7200496E7075742065786365656B
:103660006473206D6178696D756D2076616C756528
:1036700000496E707574206C657373207468616E98
:10368000206D696E696D756D2076616C7565004998
:103690006E7075742065786365656473206D6178FC
:1036A000206C656E67746800436F6D6D616E642099
:1036B0006E6F74206163636570746564005061723D
:1036C000616D657465722063616E6E6F74206265F2
:1036D000207265616400506172616D65746572206D
:1036E000697320726561642D6F6E6C7900556E731D
:1036F0007570706F72746564206E756D626572208E
:103700006F72204A534F4E20747970650042616495
:10371000206E756D62657220666F726D617400490E
:103720006E76616C6964206F72206D616C666F7279
:103730006D656420636F6D6D616E6400556E7265BA
:10374000636F676E697A656420636F6D6D616E6427
:10375000206F7220636F6E666967206E616D650011
:1037600047656E6572696320617373657274696F12
:103770006E206661696C757265004D656D6F72795A
:10378000206661756C74206465746563746564009B
:10379000537461636B206F766572666C6F7720641B
:1037A0006574656374656400436F6E74726F6C6CEE
:1037B000657220617373657274696F6E20666169EA
:1037C0006C7572650043616E6F6E6963616C206D2C
:1037D000616368696E6520617373657274696F6E89
:1037E000206661696C75726500506C616E6E657201
:1037F00020617373657274696F6E206661696C75A0
:1038000072650053746570706572206173736572C0
:1038100074696F6E206661696C75726500456E63D0
:103820006F64657220617373657274696F6E206670
:1038300061696C7572650058494F206173736572D8
:1038400074696F6E206661696C75726500436F6E96
:1038500066696720617373657274696F6E20666153
:10386000696C757265005374617465206D616E6179
:1038700067656D656E7420617373657274696F6ED0
:10388000206661696C7572650042756666657220B6
:103890006672656520617373657274696F6E206608
:1038A00061696C757265003837003836003835004C
:1038B00038340038330038320038310038300037BF
:1038C000390037380037370037360037350037349E
:1038D00000373300373200373100373000363900D7
:1038E0003638003637003636003635003634003686
:1038F0003300363200363100363000353900353885
:1039000000353700353600353500353400353300A5
:103910003532003531003530003439003438003468
:103920003700343600343500343400343300343258
:10393000003431003430003339003338003337007D
:103940004661696C656420746F2067657420706CD3
:10395000616E6E65722062756666657200426164B2
:1039600020737461747573207265706F7274207344
:10397000657474696E670050657273697374656EFF
:103980006365206572726F7200466C6F61742069A6
:1039900073204E414E00466C6F617420697320693C
:1039A0006E66696E697465004D6F76652074696D29
:1039B00065206973204E414E004D6F766520746915
:1039C0006D6520697320696E66696E69746500476C
:1039D000656E6572696320657863657074696F6E82
:1039E000207265706F7274004661696C6564207442
:1039F0006F2067657420706C616E6E6572206275F1
:103A00006666657200323700496E697469616C6977
:103A10007A6174696F6E206661696C7572650052B7
:103A20006561642D6F6E6C79206164647265737377
:103A300000496E76616C69642041646472657373D9
:103A400000446976696465206279207A65726F0046
:103A5000466C6F6174696E6720706F696E74206563
:103A600072726F7200496E7465726E616C20726161
:103A70006E6765206572726F7200496E7465726E52
:103A8000616C206572726F72003139005379737402
:103A9000656D20616C61726D0046756E6374696F4F
:103AA0006E206973207374756262656400456E747C
:103AB0006572696E6720626F6F74206C6F616465F8
:103AC0007200496E697469616C697A696E67004257
:103AD00075666665722066756C6C20464154414C73
:103AE000004275666665722066756C6C206E6F6E3E
:103AF0002D666174616C0042756666657220656D45
:103B0000707479004E6F2073756368206465766900
:103B10006365004D61782066696C652073697A651C
:103B20002065786365656465640046696C65206E30
:103B30006F74206F70656E00456E64206F6620663E
:103B4000696C6500456E64206F66206C696E650067
:103B500053797374656D2070616E69630053797376
:103B600074656D2073687574646F776E00436F6D54
:103B7000706C65746564206F7065726174696F6ED6
:103B8000004E6F206F7065726174696F6E20706592
:103B900072666F726D65640045616761696E0045AC
:103BA00072726F72004F4B006D705F6765745F7764
:103BB000726974655F627566666572006D705F64D8
:103BC00077656C6C006D705F71756575655F636FAF
:103BD0006D6D616E6400706C616E6E65725F7465B0
:103BE00073745F617373657274696F6E73282900F3
:103BF0007B226A6F62223A5B256C752C256C752CD2
:103C0000256C752C256C755D7D0A007B22727822EF
:103C10003A25647D0A007B227172223A25642C22A7
:103C20007169223A25642C22716F223A25647D0A3B
:103C3000007B227172223A25647D0A0071723A2556
:103C4000642C2071693A25642C20716F3A25640A2E
:103C50000071723A25640A005F706F70756C617450
:103C6000655F756E66696C74657265645F737461B7
:103C70007475735F7265706F727400626F677573CD
:103C800020657863657074696F6E207265706F72FD
:103C900074007B226572223A7B226662223A2530CA
:103CA0002E32662C227374223A25642C226D73679F
:103CB000223A222573202D202573227D7D0A005370
:103CC000595354454D205245414459004C6F61644D
:103CD000696E6720636F6E666967732066726F6DC9
:103CE00020454550524F4D00496E697469616C69B9
:103CF0007A696E6720636F6E6669677320746F20E0
:103D000064656661756C742073657474696E67733D
:103D1000005B71765D202071756575652072657038
:103D20006F727420766572626F7369747925376477
:103D3000205B303D6F66662C313D73696E676C6544
:103D40002C323D747269706C655D0A00716F3A25A2
:103D5000640A0071693A25640A0071723A25640A9E
:103D6000005B73765D2020737461747573207265D7
:103D7000706F727420766572626F7369747925361C
:103D800064205B303D6F66662C313D66696C7465FE
:103D90007265642C323D766572626F73655D0A00F0
:103DA0005B73695D202073746174757320696E7430
:103DB000657276616C2531346C75206D730A006C08
:103DC000696E652C706F73782C706F73792C706FBF
:103DD000737A2C706F73612C666565642C76656CE4
:103DE0002C756E69742C636F6F722C646973742CFC
:103DF00061646D6F2C66726D6F2C6D6F6D6F2C73BF
:103E0000746174002A2A2A205741524E494E472095
:103E10002A2A2A2053657474696E67206E6F6E2D8E
:103E20007374616E64617264206D6963726F737420
:103E300065702076616C75650073745F7072657073
:103E40005F6C696E650073745F707265705F6C693A
:103E50006E650073745F707265705F6C696E65008B
:103E6000737465707065725F746573745F6173738A
:103E7000657274696F6E732829004D6F746F7220BC
:103E8000256320706F77657220656E61626C656472
:103E90002073746174653A25322E30660A005B2502
:103EA0007325735D206D2573206D6F746F722070A4
:103EB0006F776572206C6576656C2531332E3366BD
:103EC000205B302E3030303D6D696E696D756D2C24
:103ED00020312E3030303D6D6178696D756D5D0A31
:103EE000005B257325735D206D257320706F7765EA
:103EF00072206D616E6167656D656E742531306429
:103F0000205B303D64697361626C65642C313D6196
:103F10006C77617973206F6E2C323D696E20637906
:103F2000636C652C333D7768656E206D6F76696EC6
:103F3000675D0A005B257325735D206D2573207016
:103F40006F6C617269747925313864205B303D6E25
:103F50006F726D616C2C313D726576657273655D53
:103F60000A005B257325735D206D2573206D6963E1
:103F7000726F737465707325313664205B312C3237
:103F80002C342C385D0A005B257325735D206D256C
:103F9000732074726176656C20706572207265762C
:103FA0006F6C7574696F6E2531302E346625730A17
:103FB000005B257325735D206D2573207374657018
:103FC00020616E676C652532302E336625730A00DA
:103FD0005B257325735D206D2573206D61702074E2
:103FE0006F206178697325313564205B303D582C32
:103FF000313D592C323D5A2E2E2E5D0A005B6D74D8
:104000005D20206D6F746F722069646C6520746927
:104010006D656F75742531342E3266205365630AE1
:10402000006D6F746F72732064652D656E657267C5
:10403000697A65640A006D6F746F727320656E65CE
:104040007267697A65640A00574053404E402064A5
:10405000656700206D6D0020696E00414243444554
:104060004647484A4B4C4D4E505152535455565763
:1040700058595A3233343536373839005B69645D04
:10408000202054696E7947204944253330730A0053
:104090005B68765D20206861726477617265207666
:1040A000657273696F6E2531362E32660A005B6861
:1040B000705D2020686172647761726520706C6148
:1040C00074666F726D253132640A005B66765D201E
:1040D000206669726D776172652076657273696FAB
:1040E0006E2531362E32660A005B66625D202066E0
:1040F00069726D77617265206275696C642531380B
:104100002E32660A005465737420232564206E6F76
:104110007420666F756E640A004E312054314D363E
:104120000A4E32204731370A4E33204732310A4E89
:10413000382046313830300A4E392047310A4E3166
:1041400030302047393220582D32352E313737590B
:104150002D33342E303732205A2D312E303030204E
:104160002854454D502C2052454D4F5645204C412A
:10417000544552290A4E33343320582D32352E35CA
:104180003935592D33342E3334390A4E33343420F3
:10419000582D32352E373031592D33342E343336B5
:1041A0000A4E33343520582D32352E373931592DBA
:1041B00033342E3532300A4E33343620582D3235D2
:1041C0002E383634592D33342E3630310A4E3334AE
:1041D0003720582D32352E393230592D33342E3682
:1041E00037390A4E33343820582D32352E3936308F
:1041F000592D33342E3735340A4E33343920582D67
:1042000032352E393832592D33342E3832360A4E63
:1042100033353020582D32352E393837592D333437
:104220002E3839350A4E33353120582D32352E3956
:104230003736592D33342E3936310A4E3335322044
:10424000582D32352E393438592D33352E303233FE
:104250000A4E33353320582D32352E393033592D0F
:1042600033352E3038320A4E33353420582D32351E
:104270002E383431592D33352E3133380A4E3335FB
:104280003520582D32352E373633592D33352E31D2
:1042900039300A4E33353620582D32352E363639E0
:1042A000592D33352E3233390A4E33353720582DB8
:1042B00032352E353539592D33352E3238340A4EB4
:1042C00033353820582D32352E343333592D33358C
:1042D0002E3332350A4E33353920582D32352E32B1
:1042E0003931592D33352E3336330A4E333630209B
:1042F000582D32352E313334592D33352E3339374D
:104300000A4E33363120582D32342E393633592D5A
:1043100033352E3432380A4E33363220582D32346B
:104320002E373737592D33352E3435350A4E33363F
:104330003320582D32342E353737592D33352E341E
:1043400037370A4E33363420582D32342E33363731
:10435000592D33352E3439360A4E33363520582D03
:1043600032342E313434592D33352E3531310A4E15
:1043700033363620582D32332E393039592D3335D6
:104380002E3532320A4E33363720582D32332E3600
:104390003631592D33352E3532390A4E33363820E1
:1043A000582D32332E343033592D33352E353332A8
:1043B0000A4E33363920582D32332E313333592DAE
:1043C00033352E3533320A4E33373020582D3232C2
:1043D0002E383533592D33352E3532370A2F4E329C
:1043E00035313820473058302E333237592D33335A
:1043F0002E3532315A2D312E3030300A4E32353191
:1044000039204D3330004E31204732300A4E3520AE
:10441000473430204731370A4E3130205431204D57
:1044200030360A284E313520473930204730205861
:1044300030205930205A30290A4E3230205335303E
:104440003030204D3033200A4E32352058302E3057
:1044500036342059302E333236205A300A4E34301A
:1044600020473031204631362E300A4E3530205824
:10447000302E3036342059302E3332360A4E353510
:104480002058302E3036302059302E3239330A4EF3
:1044900036302058302E3037372059302E323637CC
:1044A0000A4E36352058302E3131312059302E32D7
:1044B00035370A4E37302058302E313439205930B4
:1044C0002E3235320A4E37352058302E31383820CA
:1044D00059302E3235350A4E38302058302E32328F
:1044E000372059302E3236380A4E38352058302E83
:1044F0003235372059302E3237310A4E3930205874
:10450000302E3333352059302E3236350A4E393578
:104510002058302E3431322059302E3237310A4E65
:104520003130302058302E3437342059302E323844
:10453000370A4E3130352058302E34393120593039
:104540002E3238390A4E3131302058302E3531373D
:104550002059302E3237330A4E3131352058302E23
:104560003534342059302E3236330A4E3132302031
:1045700058302E3538302059302E3236310A4E31EF
:1045800032352058302E3539352059302E323633D9
:104590000A4E3133302058302E3632312059302EE9
:1045A0003237340A4E3133352058302E36353920E3
:1045B00059302E3330360A4E3134302058302E36B2
:1045C00037332059302E3333350A4E3134352058A5
:1045D000302E3637392059302E3336310A4E3135A8
:1045E000302058302E3637382059302E3338390A9B
:1045F0004E3135352058302E3637302059302E3454
:1046000032300A4E3136302058302E36373020596D
:10461000302E3434360A4E3136352058302E363866
:10462000302059302E3437340A4E3137302058304C
:104630002E3730342059302E3439370A4E31373541
:104640002058302E3733322059302E3531350A4E2E
:104650003138302058302E3739342059302E353308
:10466000350A4E3138352058302E383732205930FF
:104670002E3536370A4E3139302058302E39353004
:104680002059302E3630340A4E3139352058312EEB
:104690003033312059302E3634370A4E3230302004
:1046A00058312E3134392059302E3732320A4E32B9
:1046B00030352058312E3330382059302E383534AB
:1046C0000A4E3231302058312E3433302059302EBA
:1046D0003938340A4E3231352058312E34343720AF
:1046E00059302E3938360A4E3232302058312E3673
:1046F00032382059302E3832320A4E323235205874
:10470000312E3733322059302E3731340A4E32337E
:10471000302058322E3030392059302E3338310A7B
:104720004E3233352058322E3131362059302E3228
:1047300036360A4E3234302058322E323238205932
:10474000302E3135370A4E3234352058322E323839
:10475000302059302E3132330A4E32353020583223
:104760002E3333322059302E3039340A4E3235351B
:104770002058322E3432332059302E3037300A4E02
:104780003236302058322E3438392059302E3036D7
:10479000350A4E3236352058322E353537205930CD
:1047A0002E3036360A4E3237302058322E363237D7
:1047B0002059302E3038340A4E3237352058322EB8
:1047C0003639332059302E3130390A4E32383020C4
:1047D00058322E3733302059302E3133330A4E328F
:1047E00038352058322E3830352059302E31393076
:1047F0000A4E3239302058322E3832392059302E74
:104800003231360A4E3239352058322E383830207F
:1048100059302E3239310A4E3330302058322E384A
:1048200038342059302E3330300A4E33303520584A
:10483000322E3839382059302E3333320A4E333144
:10484000302058322E3930352059302E3336370A41
:104850004E3331352058322E3931302059302E34F4
:1048600030370A4E3332302058322E393038205902
:10487000302E3434360A4E3332352058322E393009
:10488000312059302E3439350A4E333330205832E6
:104890002E3839372059302E3439350A4E333335D6
:1048A0002058322E3839302059302E3532340A4EC5
:1048B0003334302058322E3834322059302E3630AE
:1048C000340A4E3334352058322E383134205930A2
:1048D0002E3636350A4E3335302058322E3739349D
:1048E0002059302E3735300A4E3335352058322E88
:1048F0003739312059302E3833380A4E333630208C
:1049000058322E3831392059302E3937360A4E3345
:1049100036352058322E3833372059312E30343442
:104920000A4E3337302058322E3836322059312E45
:104930003131320A4E3337352058322E383737204E
:1049400059312E3134350A4E3338302058322E3911
:1049500031322059312E3231370A4E333835205812
:10496000322E3931372059312E3232360A4E333910
:10497000302058322E3935312059312E3238310A13
:104980004E3339352058322E3937302059312E32B6
:1049900039350A4E3430302058322E3939362059C4
:1049A000312E3239350A4E3430352058332E3031DD
:1049B000332059312E3237350A4E343130205833B6
:1049C0002E3032342059312E3235340A4E343135BE
:1049D0002058332E3037302059312E3135310A4EA0
:1049E0003432302058332E3037372059312E31337E
:1049F000340A4E3432352058332E31323520593175
:104A00002E3033390A4E3433302058332E31333878
:104A10002059312E3031390A4E3433352058332E57
:104A20003230352059302E3930380A4E3434302067
:104A300058332E3238322059302E3739370A4E3417
:104A400034352058332E3336312059302E36393113
:104A50000A4E3435302058332E3432362059302E19
:104A60003539320A4E3435352058332E3435362018
:104A700059302E3534330A4E3436302058332E34E4
:104A800037392059302E3439330A4E3436352058D0
:104A9000332E3439342059302E3437320A4E3437DD
:104AA000302058332E3530352059302E3434360AE4
:104AB0004E3437352058332E3531382059302E3486
:104AC00031370A4E3438302058332E3533302059A0
:104AD000302E3339310A4E3438352058332E35369E
:104AE000342059302E3330300A4E34393020583388
:104AF0002E3537372059302E3235330A4E3439357A
:104B00002058332E3536382059302E3231320A4E65
:104B10003530302058332E3534342059302E31374B
:104B2000360A4E3530352058332E35343120593041
:104B30002E3134360A4E3531302058332E35353348
:104B40002059302E3131390A4E3531352058332E27
:104B50003537362059302E3130360A4E3532302036
:104B600058332E3539372059302E3130320A4E35F0
:104B700032352058332E3631382059302E313039E5
:104B80000A4E3533302058332E3633392059302EE3
:104B90003132390A4E3533352058332E36353020F0
:104BA00059302E3135390A4E3534302058332E36AF
:104BB00036332059302E3137380A4E3534352058A7
:104BC000332E3637382059302E3139320A4E3535AA
:104BD000302058332E3639392059302E3139370AA2
:104BE0004E3535352058332E3732332059302E315B
:104BF00039360A4E3536302058332E373634205960
:104C0000302E3137390A4E3536352058332E38306C
:104C1000352059302E3136350A4E3537302058334D
:104C20002E3838342059302E3135390A4E35373543
:104C30002058332E3934392059302E3136350A4E2A
:104C40003538302058332E3936362059302E31370A
:104C5000350A4E3538352058332E393738205930FB
:104C60002E3139340A4E3539302058332E39373801
:104C70002059302E3232330A4E3539352058332EF2
:104C80003936302059302E3234350A4E3630302005
:104C900058332E3833342059302E3331310A4E36C2
:104CA00030352058332E3736322059302E333435B4
:104CB0000A4E3631302058332E3732362059302EB6
:104CC0003338390A4E3631352058332E37303320B9
:104CD00059302E3435380A4E3632302058332E367D
:104CE00038322059302E3533300A4E36323520587E
:104CF000332E3637392059302E3533340A4E363379
:104D0000302058332E3632362059302E3638310A7C
:104D10004E3633352058332E3536382059302E381C
:104D200032380A4E3634302058332E343434205939
:104D3000312E3038300A4E3634352058332E343048
:104D4000352059312E3136370A4E3635302058331A
:104D50002E3430342059312E3136370A4E3635351F
:104D60002058332E3338372059312E3230380A4EFE
:104D70003636302058332E3338342059312E3230E5
:104D8000380A4E3636352058332E333635205931D1
:104D90002E3236350A4E3637302058332E333535DD
:104DA0002059312E3238350A4E3637352058332EB9
:104DB0003334382059312E3330380A4E36383020CB
:104DC00058332E3333332059312E3335300A4E3693
:104DD00038352058332E3332312059312E33393182
:104DE0000A4E3639302058332E3331312059312E86
:104DF0003432380A4E3639352058332E3333392081
:104E000059312E3432330A4E3730302058332E3455
:104E100034302059312E3430360A4E373035205850
:104E2000332E3531302059312E3430380A4E373157
:104E3000302058332E3538352059312E3432310A4E
:104E40004E3731352058332E3631312059312E34FA
:104E500033390A4E3732302058332E36313120590B
:104E6000312E3434310A4E3732352058332E363114
:104E7000352059312E3434310A4E373330205833EF
:104E80002E3633362059312E3438380A4E373335E2
:104E90002058332E3633342059312E3531370A4ECF
:104EA0003734302058332E3632322059312E3534B3
:104EB000330A4E3734352058332E363035205931A9
:104EC0002E3536330A4E3735302058332E353736A7
:104ED0002059312E3537350A4E3735352058332E87
:104EE0003534342059312E3538310A4E373630209A
:104EF00058332E3437392059312E3539320A4E374E
:104F000036352058332E3435312059312E35393845
:104F10000A4E3737302058332E3338372059312E48
:104F20003632360A4E3737352058332E3339302053
:104F300059312E3633360A4E3738302058332E3515
:104F400033322059312E3630320A4E373835205818
:104F5000332E3630312059312E3539370A4E373914
:104F6000302058332E3636382059312E3539380A0C
:104F70004E3739352058332E3738322059312E36B6
:104F800031320A4E3830302058332E3739342059D8
:104F9000312E3631380A4E3830352058332E3836D7
:104FA000382059312E3633360A4E383130205833B6
:104FB0002E3931382059312E3635350A4E383135B3
:104FC0002058332E3934352059312E3636370A4E93
:104FD0003832302058332E3936342059312E363875
:104FE000350A4E3832352058332E3936372059316C
:104FF0002E3638350A4E3833302058332E39373470
:105000002059312E3639390A4E3833352058332E4F
:105010003938342059312E3732350A4E3834302061
:1050200058332E3938342059312E3735380A4E3816
:1050300034352058332E3937302059312E37393016
:105040000A4E3835302058332E3934352059312E18
:105050003831370A4E3835352058332E393138201B
:1050600059312E3832360A4E3836302058332E38E1
:1050700039312059312E3832370A4E3836352058DA
:10508000332E3834322059312E3830390A4E3837E1
:10509000302058332E3739382059312E3738340ADA
:1050A0004E3837352058332E3734362059312E3785
:1050B00037320A4E3838302058332E363938205996
:1050C000312E3736340A4E3838352058332E3633A1
:1050D000352059312E3736360A4E3839302058337C
:1050E0002E3535332059312E3738350A4E3839357B
:1050F0002058332E3437382059312E3832300A4E6A
:105100003930302058332E3430392059312E38364A
:10511000340A4E3930352058332E33343520593146
:105120002E3931380A4E3931302058332E32363448
:105130002059322E3032330A4E3931352058332E31
:105140003234382059322E3035310A4E393230203F
:1051500058332E3234302059322E3038310A4E39FD
:1051600032352058332E3331362059322E303836EE
:105170000A4E3933302058332E3339302059322EED
:105180003130340A4E3933352058332E34313420FF
:1051900059322E3132310A4E3934302058332E34C0
:1051A00033312059322E3135330A4E3934352058B7
:1051B000332E3433332059322E3138300A4E3935BC
:1051C000302058332E3432372059322E3230350ABF
:1051D0004E3935352058332E3431332059322E3262
:1051E00032340A4E3936302058332E333932205972
:1051F000322E3234320A4E3936352058332E33337C
:10520000352059322E3234340A4E39373020583353
:105210002E3237382059322E3233360A4E3937354E
:105220002058332E3235362059322E3234320A4E3F
:105230003938302058332E3233392059322E323516
:10524000310A4E3938352058332E32313120593217
:105250002E3238300A4E3939302058332E31373417
:105260002059322E3335360A4E3939352058332EEF
:105270003135392059322E3339370A4E31303030FA
:105280002058332E3135302059322E3433380A4EDF
:10529000313030352058332E3134302059322E34CD
:1052A00038310A4E313031302058332E31333220EC
:1052B00059322E3531300A4E313031352058332EA7
:1052C0003131382059322E3534330A4E31303230B4
:1052D0002058332E3039392059322E3537360A4E80
:1052E000313032352058332E3035312059322E3678
:1052F00033310A4E313033302058332E30303320A2
:1053000059322E3636360A4E313033352058322E49
:105310003935372059322E3638350A4E313034304F
:105320002058322E3930372059322E3639390A4E2C
:10533000313034352058322E3836302059322E371D
:1053400031310A4E313035302058322E3831392043
:1053500059322E3732370A4E313035352058322EF9
:105360003736382059322E3734350A4E3130363000
:105370002058322E3731362059322E3735370A4EE3
:10538000313036352058322E3637352059322E37C7
:1053900035370A4E313037302058322E35373920E4
:1053A00059322E3733310A4E313037352058322EAC
:1053B0003537302059322E3732330A4E31303830BB
:1053C0002058322E3535392059322E3732300A4E98
:1053D000313038352058322E3533302059322E377F
:1053E00030310A4E313039302058322E35303120AC
:1053F00059322E3639330A4E313039352058322E53
:105400003437312059322E3638330A4E313130306C
:105410002058322E3434332059322E3636380A4E44
:10542000313130352058322E3339362059322E362C
:1054300033340A4E313131302058322E3335342056
:1054400059322E3539310A4E313131352058322E0C
:105450003335322059322E3539310A4E313132301E
:105460002058322E3332352059322E3534330A4EFD
:10547000313132352058322E3331352059322E35E4
:1054800032310A4E313133302058322E333037200A
:1054900059322E3439380A4E313133352058322EB4
:1054A0003239362059322E3436340A4E31313430C6
:1054B0002058322E3239332059322E3432370A4EA8
:1054C000313134352058322E3239352059322E338D
:1054D00036360A4E313135302058322E33323120B3
:1054E00059322E3330330A4E313135352058322E71
:1054F0003335382059322E3234370A4E3131363076
:105500002058322E3431392059322E3230330A4E5F
:10551000313136352058322E3431392059322E313E
:1055200037390A4E313137302058322E3430352059
:1055300059322E3135380A4E313137352058322E16
:105540003336322059322E3132330A4E313138302F
:105550002058322E3335342059322E3130340A4E11
:10556000313138352058322E3335342059322E30EF
:1055700039310A4E313139302058322E333830200B
:1055800059322E3036350A4E313139352058322EC7
:105590003431302059322E3035310A4E31323030EC
:1055A0002058322E3431302059322E3034370A4EC2
:1055B000313230352058322E3430352059322E30A9
:1055C00032380A4E313231302058322E34303820C1
:1055D00059322E3031300A4E313231352058322E88
:1055E0003431362059312E3939350A4E3132323084
:1055F0002058322E3433332059312E3938320A4E66
:10560000313232352058322E3433382059312E3948
:1056100036330A4E313233302058322E343437206C
:1056200059312E3934380A4E313233352058322E22
:105630003436312059312E3933380A4E3132343034
:105640002058322E3438302059312E3933310A4E19
:10565000313234352058322E3437382059312E38F3
:1056600039390A4E313235302058322E343837200D
:1056700059312E3837350A4E313235352058322ED1
:105680003530342059312E3835340A4E31323630E7
:105690002058322E3532372059312E3834380A4EC0
:1056A000313236352058322E3534392059312E38A2
:1056B00034390A4E313237302058322E35373720C0
:1056C00059312E3836310A4E313237352058322E84
:1056D0003630342059312E3836360A4E3132383091
:1056E0002058322E3633312059312E3835340A4E77
:1056F000313238352058322E3634302059312E3858
:1057000032370A4E313239302058322E363430207A
:1057100059312E3739320A4E313239352058322E2E
:105720003632392059312E3735390A4E313330303F
:105730002058322E3631322059312E3732370A4E28
:10574000313330352058322E3537362059312E3608
:1057500039340A4E313331302058322E3533362029
:1057600059312E3636320A4E313331352058322EE9
:105770003437302059312E3631360A4E31333230FB
:105780002058322E3334352059312E3535310A4EDA
:10579000313332352058322E3330372059312E35BF
:1057A00032310A4E313333302058322E32363020E7
:1057B00059312E3438320A4E313333352058322E97
:1057C0003234332059312E3437370A4E31333430A6
:1057D0002058322E3232382059312E3436390A4E82
:1057E000313334352058322E3232322059312E3472
:1057F00034380A4E313335302058322E3232382088
:1058000059312E3432350A4E313335352058322E47
:105810003235342059312E3430350A4E313336305A
:105820002058322E3236382059312E3337330A4E33
:10583000313336352058322E3237392059312E3314
:1058400034320A4E313337302058322E333038203C
:1058500059312E3238370A4E313337352058322EEF
:105860003334302059312E3235340A4E313338300A
:105870002058322E3430372059312E3230310A4EF2
:10588000313338352058322E3434312059312E31CD
:1058900035360A4E313339302058322E34353420E3
:1058A00059312E3133310A4E313339352058322EA9
:1058B0003436302059312E3130360A4E31343030C2
:1058C0002058322E3436342059312E3130320A4E9F
:1058D000313430352058322E3437312059312E3082
:1058E00033360A4E313431302058322E3436362099
:1058F00059302E3937310A4E313431352058322E55
:105900003435312059302E3839370A4E313432305F
:105910002058322E3431352059302E3739310A4E45
:10592000313432352058322E3430332059302E372E
:1059300036370A4E313433302058322E333838203F
:1059400059302E3736350A4E313433352058322E01
:105950003330362059302E3834310A4E3134343019
:105960002058322E3232322059302E3931310A4EFF
:10597000313434352058322E3131342059302E39DB
:1059800039350A4E313435302058322E30303220FD
:1059900059312E3037360A4E313435352058312EB4
:1059A0003930352059312E3133390A4E31343630C1
:1059B0002058312E3735342059312E3232330A4EA9
:1059C000313436352058312E3633372059312E3286
:1059D00037380A4E313437302058312E353832209E
:1059E00059312E3330310A4E313437352058312E6B
:1059F0003535382059312E3331350A4E313438306F
:105A00002058312E3436302059312E3335320A4E5B
:105A1000313438352058312E3339392059312E332D
:105A200036300A4E313439302058312E3333382055
:105A300059312E3335340A4E313439352058312E10
:105A40003238372059312E3332390A4E3135303021
:105A50002058312E3234382059312E3239340A4E02
:105A6000313530352058312E3231372059312E32F0
:105A700035340A4E313531302058312E3231342010
:105A800059312E3235320A4E313531352058312ECA
:105A90003137322059312E3139350A4E31353230D5
:105AA0002058312E3132382059312E3133390A4EB7
:105AB000313532352058312E3131302059312E31A7
:105AC00031370A4E313533302058302E39353820B1
:105AD00059302E3934310A4E313533352058302E75
